{
  "_format": "hh-sol-artifact-1",
  "contractName": "ConfidentialAuction",
  "sourceName": "contracts/ConfidentialAuction.sol",
  "abi": [
    {
      "inputs": [],
      "stateMutability": "nonpayable",
      "type": "constructor"
    },
    {
      "anonymous": false,
      "inputs": [
        {
          "indexed": true,
          "internalType": "uint256",
          "name": "auctionId",
          "type": "uint256"
        },
        {
          "indexed": false,
          "internalType": "string",
          "name": "title",
          "type": "string"
        },
        {
          "indexed": false,
          "internalType": "string",
          "name": "category",
          "type": "string"
        },
        {
          "indexed": false,
          "internalType": "uint256",
          "name": "minimumBid",
          "type": "uint256"
        },
        {
          "indexed": true,
          "internalType": "address",
          "name": "creator",
          "type": "address"
        },
        {
          "indexed": false,
          "internalType": "uint256",
          "name": "endTime",
          "type": "uint256"
        }
      ],
      "name": "AuctionCreated",
      "type": "event"
    },
    {
      "anonymous": false,
      "inputs": [
        {
          "indexed": true,
          "internalType": "uint256",
          "name": "auctionId",
          "type": "uint256"
        },
        {
          "indexed": false,
          "internalType": "address",
          "name": "winner",
          "type": "address"
        },
        {
          "indexed": false,
          "internalType": "uint256",
          "name": "winningBid",
          "type": "uint256"
        }
      ],
      "name": "AuctionEnded",
      "type": "event"
    },
    {
      "anonymous": false,
      "inputs": [
        {
          "indexed": true,
          "internalType": "uint256",
          "name": "auctionId",
          "type": "uint256"
        },
        {
          "indexed": true,
          "internalType": "address",
          "name": "bidder",
          "type": "address"
        },
        {
          "indexed": false,
          "internalType": "uint256",
          "name": "timestamp",
          "type": "uint256"
        }
      ],
      "name": "BidPlaced",
      "type": "event"
    },
    {
      "stateMutability": "payable",
      "type": "fallback"
    },
    {
      "inputs": [
        {
          "internalType": "uint256",
          "name": "",
          "type": "uint256"
        },
        {
          "internalType": "uint256",
          "name": "",
          "type": "uint256"
        }
      ],
      "name": "auctionBids",
      "outputs": [
        {
          "internalType": "address",
          "name": "bidder",
          "type": "address"
        },
        {
          "internalType": "euint64",
          "name": "amount",
          "type": "bytes32"
        },
        {
          "internalType": "ebool",
          "name": "isHighBid",
          "type": "bytes32"
        },
        {
          "internalType": "string",
          "name": "comments",
          "type": "string"
        },
        {
          "internalType": "uint256",
          "name": "timestamp",
          "type": "uint256"
        },
        {
          "internalType": "bool",
          "name": "isRevealed",
          "type": "bool"
        }
      ],
      "stateMutability": "view",
      "type": "function"
    },
    {
      "inputs": [
        {
          "internalType": "uint256",
          "name": "",
          "type": "uint256"
        }
      ],
      "name": "auctions",
      "outputs": [
        {
          "internalType": "uint256",
          "name": "id",
          "type": "uint256"
        },
        {
          "internalType": "string",
          "name": "title",
          "type": "string"
        },
        {
          "internalType": "string",
          "name": "description",
          "type": "string"
        },
        {
          "internalType": "string",
          "name": "category",
          "type": "string"
        },
        {
          "internalType": "uint256",
          "name": "minimumBid",
          "type": "uint256"
        },
        {
          "internalType": "address",
          "name": "creator",
          "type": "address"
        },
        {
          "internalType": "uint256",
          "name": "timestamp",
          "type": "uint256"
        },
        {
          "internalType": "bool",
          "name": "isActive",
          "type": "bool"
        },
        {
          "internalType": "uint256",
          "name": "endTime",
          "type": "uint256"
        },
        {
          "internalType": "euint64",
          "name": "highestBidAmount",
          "type": "bytes32"
        },
        {
          "internalType": "address",
          "name": "highestBidder",
          "type": "address"
        },
        {
          "internalType": "uint256",
          "name": "bidCount",
          "type": "uint256"
        }
      ],
      "stateMutability": "view",
      "type": "function"
    },
    {
      "inputs": [
        {
          "internalType": "string",
          "name": "_title",
          "type": "string"
        },
        {
          "internalType": "string",
          "name": "_description",
          "type": "string"
        },
        {
          "internalType": "string",
          "name": "_category",
          "type": "string"
        },
        {
          "internalType": "uint256",
          "name": "_minimumBid",
          "type": "uint256"
        }
      ],
      "name": "createAuction",
      "outputs": [],
      "stateMutability": "nonpayable",
      "type": "function"
    },
    {
      "inputs": [],
      "name": "emergencyWithdraw",
      "outputs": [],
      "stateMutability": "nonpayable",
      "type": "function"
    },
    {
      "inputs": [
        {
          "internalType": "uint256",
          "name": "_auctionId",
          "type": "uint256"
        }
      ],
      "name": "endAuction",
      "outputs": [],
      "stateMutability": "nonpayable",
      "type": "function"
    },
    {
      "inputs": [],
      "name": "getActiveAuctions",
      "outputs": [
        {
          "components": [
            {
              "internalType": "uint256",
              "name": "id",
              "type": "uint256"
            },
            {
              "internalType": "string",
              "name": "title",
              "type": "string"
            },
            {
              "internalType": "string",
              "name": "description",
              "type": "string"
            },
            {
              "internalType": "string",
              "name": "category",
              "type": "string"
            },
            {
              "internalType": "uint256",
              "name": "minimumBid",
              "type": "uint256"
            },
            {
              "internalType": "address",
              "name": "creator",
              "type": "address"
            },
            {
              "internalType": "uint256",
              "name": "timestamp",
              "type": "uint256"
            },
            {
              "internalType": "bool",
              "name": "isActive",
              "type": "bool"
            },
            {
              "internalType": "uint256",
              "name": "endTime",
              "type": "uint256"
            },
            {
              "internalType": "euint64",
              "name": "highestBidAmount",
              "type": "bytes32"
            },
            {
              "internalType": "address",
              "name": "highestBidder",
              "type": "address"
            },
            {
              "internalType": "uint256",
              "name": "bidCount",
              "type": "uint256"
            }
          ],
          "internalType": "struct ConfidentialAuction.Auction[]",
          "name": "",
          "type": "tuple[]"
        }
      ],
      "stateMutability": "view",
      "type": "function"
    },
    {
      "inputs": [
        {
          "internalType": "uint256",
          "name": "_auctionId",
          "type": "uint256"
        }
      ],
      "name": "getAuction",
      "outputs": [
        {
          "components": [
            {
              "internalType": "uint256",
              "name": "id",
              "type": "uint256"
            },
            {
              "internalType": "string",
              "name": "title",
              "type": "string"
            },
            {
              "internalType": "string",
              "name": "description",
              "type": "string"
            },
            {
              "internalType": "string",
              "name": "category",
              "type": "string"
            },
            {
              "internalType": "uint256",
              "name": "minimumBid",
              "type": "uint256"
            },
            {
              "internalType": "address",
              "name": "creator",
              "type": "address"
            },
            {
              "internalType": "uint256",
              "name": "timestamp",
              "type": "uint256"
            },
            {
              "internalType": "bool",
              "name": "isActive",
              "type": "bool"
            },
            {
              "internalType": "uint256",
              "name": "endTime",
              "type": "uint256"
            },
            {
              "internalType": "euint64",
              "name": "highestBidAmount",
              "type": "bytes32"
            },
            {
              "internalType": "address",
              "name": "highestBidder",
              "type": "address"
            },
            {
              "internalType": "uint256",
              "name": "bidCount",
              "type": "uint256"
            }
          ],
          "internalType": "struct ConfidentialAuction.Auction",
          "name": "",
          "type": "tuple"
        }
      ],
      "stateMutability": "view",
      "type": "function"
    },
    {
      "inputs": [
        {
          "internalType": "uint256",
          "name": "_auctionId",
          "type": "uint256"
        }
      ],
      "name": "getAuctionBidCount",
      "outputs": [
        {
          "internalType": "uint256",
          "name": "",
          "type": "uint256"
        }
      ],
      "stateMutability": "view",
      "type": "function"
    },
    {
      "inputs": [],
      "name": "getTotalCounts",
      "outputs": [
        {
          "internalType": "uint256",
          "name": "totalAuctionCount",
          "type": "uint256"
        },
        {
          "internalType": "uint256",
          "name": "activeAuctionCount",
          "type": "uint256"
        }
      ],
      "stateMutability": "view",
      "type": "function"
    },
    {
      "inputs": [
        {
          "internalType": "address",
          "name": "_user",
          "type": "address"
        }
      ],
      "name": "getUserAuctions",
      "outputs": [
        {
          "internalType": "uint256[]",
          "name": "",
          "type": "uint256[]"
        }
      ],
      "stateMutability": "view",
      "type": "function"
    },
    {
      "inputs": [
        {
          "internalType": "address",
          "name": "_user",
          "type": "address"
        },
        {
          "internalType": "uint256",
          "name": "_auctionId",
          "type": "uint256"
        }
      ],
      "name": "hasPlacedBid",
      "outputs": [
        {
          "internalType": "bool",
          "name": "",
          "type": "bool"
        }
      ],
      "stateMutability": "view",
      "type": "function"
    },
    {
      "inputs": [
        {
          "internalType": "address",
          "name": "",
          "type": "address"
        },
        {
          "internalType": "uint256",
          "name": "",
          "type": "uint256"
        }
      ],
      "name": "hasUserBid",
      "outputs": [
        {
          "internalType": "bool",
          "name": "",
          "type": "bool"
        }
      ],
      "stateMutability": "view",
      "type": "function"
    },
    {
      "inputs": [],
      "name": "nextAuctionId",
      "outputs": [
        {
          "internalType": "uint256",
          "name": "",
          "type": "uint256"
        }
      ],
      "stateMutability": "view",
      "type": "function"
    },
    {
      "inputs": [
        {
          "internalType": "uint256",
          "name": "_auctionId",
          "type": "uint256"
        },
        {
          "internalType": "bool",
          "name": "_isHighBid",
          "type": "bool"
        },
        {
          "internalType": "uint256",
          "name": "_bidAmount",
          "type": "uint256"
        },
        {
          "internalType": "string",
          "name": "_comments",
          "type": "string"
        }
      ],
      "name": "placeBid",
      "outputs": [],
      "stateMutability": "payable",
      "type": "function"
    },
    {
      "inputs": [],
      "name": "totalAuctions",
      "outputs": [
        {
          "internalType": "uint256",
          "name": "",
          "type": "uint256"
        }
      ],
      "stateMutability": "view",
      "type": "function"
    },
    {
      "inputs": [
        {
          "internalType": "address",
          "name": "",
          "type": "address"
        },
        {
          "internalType": "uint256",
          "name": "",
          "type": "uint256"
        }
      ],
      "name": "userAuctions",
      "outputs": [
        {
          "internalType": "uint256",
          "name": "",
          "type": "uint256"
        }
      ],
      "stateMutability": "view",
      "type": "function"
    },
    {
      "stateMutability": "payable",
      "type": "receive"
    }
  ],
  "bytecode": "0x6080806040523461001f5760016004555f600555611cf990816100248239f35b5f80fdfe60806040526004361015610018575b361561001657005b005b60e05f3560e01c908163045af3341461180157816316002f4a146117e45781632158d95a1461179b5781633f40efdc1461100b578163571a26a014610f175781635f93de4914610e7a57816375b6a06e1461075e57816378bd793514610658578163a65ed0d614610445578163b4fbe80a14610604578163b9a2de3a1461048e578163c75c99e614610445578163cf44b5d51461022657508063db2e21bc1461019f578063fc528482146101825763ff3ad0b40361000e573461017e5760208060031936011261017e576001600160a01b036100f2611b05565b165f526002815260405f20604051908183825491828152019081925f52845f20905f5b8682821061016a57868661012b82880383611899565b60405192839281840190828552518091526040840192915f5b82811061015357505050500390f35b835185528695509381019392810192600101610144565b835485529093019260019283019201610115565b5f80fd5b3461017e575f36600319011261017e576020600454604051908152f35b3461017e575f36600319011261017e573033036101e1575f808080478181156101d8575b3390f1156101cd57005b6040513d5f823e3d90fd5b506108fc6101c3565b60405162461bcd60e51b815260206004820152601a60248201527f4f6e6c7920636f6e74726163742063616e2077697468647261770000000000006044820152606490fd5b3461017e575f36600319011261017e575f6001600454905b8181106103fb575061026861025283611c30565b926102606040519485611899565b808452611c30565b60209390601f1901845f5b8281106103e5575050505f60015b8381106102e5576040805187815286518189018190525f92600582901b8301810191898b01918b9085015b8287106102b95785850386f35b9091929382806102d5600193603f198a82030186528851611a56565b96019201960195929190926102ac565b805f525f865260405f2060ff600782015416908180926103d8575b61030f575b5050600101610281565b926103d091600b60019495604051926103278461187c565b81548452610336878301611949565b8c85015261034660028301611949565b604085015261035760038301611949565b6060850152600482015460808501526001600160a01b03908160058401541660a0860152600683015460c086015215158985015260088201546101008501526009820154610120850152600a8201541661014084015201546101608201526103bf8289611c48565b526103ca8188611c48565b50611b30565b919087610305565b5060088101544210610300565b6103ed611bd6565b828288010152018590610273565b805f525f60205260405f2060ff6007820154169081610437575b50610423575b60010161023e565b9161042f600191611b30565b92905061041b565b600891500154421085610415565b3461017e57604036600319011261017e576001600160a01b03610466611b05565b165f52600360205260405f206024355f52602052602060ff60405f2054166040519015158152f35b3461017e5760208060031936011261017e5760043590811515806105f9575b6104b690611b3e565b815f525f81526104cf60ff600760405f20015416611b8a565b815f525f815260405f2060088101544210908115916105e2575b501561057857815f525f815260405f20906007820160ff1981541690556001600160a01b039182600a82015416908161051e57005b5f80808360059760048396015498899201541682821561056f575bf1156101cd577fd2aa34a4fdbbc6dff6a3e56f46e0f3ae2a31d7785ff3487aa5c95c642acea501926040928351928352820152a2005b506108fc610539565b6084906040519062461bcd60e51b82526004820152603560248201527f41756374696f6e20686173206e6f7420656e6465642079657420616e6420796f60448201527f7520617265206e6f74207468652063726561746f7200000000000000000000006064820152fd5b6001600160a01b03915060050154163314836104e9565b5060045482106104ad565b3461017e57604036600319011261017e5761061d611b05565b6001600160a01b0360243591165f52600260205260405f20805482101561017e5760209161064a91611b1b565b90546040519160031b1c8152f35b3461017e57602036600319011261017e57600435610674611bd6565b5080151580610753575b61068790611b3e565b5f525f60205261074f60405f20600b604051916106a38361187c565b805483526106b360018201611949565b60208401526106c460028201611949565b60408401526106d560038201611949565b6060840152600481015460808401526001600160a01b038060058301541660a0850152600682015460c085015260ff600783015416151560e085015260088201546101008501526009820154610120850152600a820154166101408401520154610160820152604051918291602083526020830190611a56565b0390f35b50600454811061067e565b3461017e57608036600319011261017e5760043567ffffffffffffffff811161017e5761078f9036906004016118bb565b60243567ffffffffffffffff811161017e576107af9036906004016118bb565b60443567ffffffffffffffff811161017e576107cf9036906004016118bb565b825115610e3557815115610df057805115610dab5760643515610d5b57600454916107f983611b30565b60045562093a8042014211610d4757610810611c5c565b6040519061081d8261187c565b8482526020820192868452604083015283606083015260643560808301523360a08301524260c0830152600160e083015262093a8042016101008301526101208201525f6101408201525f610160820152835f525f60205260405f2091815183555180519067ffffffffffffffff8211610ae05781906108a06001860154611911565b601f8111610cf7575b50602090601f8311600114610c89575f92610c7e575b50508160011b915f199060031b1c19161760018301555b604081015180519067ffffffffffffffff8211610ae05781906108fc6002860154611911565b601f8111610c2e575b50602090601f8311600114610bc0575f92610bb5575b50508160011b915f199060031b1c19161760028301555b606081015180519067ffffffffffffffff8211610ae0576109566003850154611911565b601f8111610b71575b50602090601f8311600114610aff579180600b9492610160945f92610af4575b50508160011b915f199060031b1c19161760038501555b60808101516004850155600584016001600160a01b03908160a0840151169073ffffffffffffffffffffffffffffffffffffffff19918282541617905560c083015160068701556109fc60e08401511515600788019060ff801983541691151516179055565b61010083015160088701556101208301516009870155600a86019161014084015116908254161790550151910155335f52600260205260405f209081549068010000000000000000821015610ae057610a7f827f7ee613409a3818be8eb068049ae12d5fa12b0bb8b240a3f0488a0d2509c9fc7d946001610ac495018155611b1b565b81549060031b9086821b915f19901b1916179055610a9e600554611b30565b600555610ab6604051956080875260808701906119eb565b9085820360208701526119eb565b92606435604082015262093a80420160608201528033940390a3005b634e487b7160e01b5f52604160045260245ffd5b01519050898061097f565b90600385015f5260205f20915f5b601f1985168110610b59575092600b94926001926101609583601f19811610610b41575b505050811b016003850155610996565b01515f1960f88460031b161c19169055898080610b31565b91926020600181928685015181550194019201610b0d565b600385015f5260205f20601f840160051c810160208510610bae575b601f830160051c82018110610ba357505061095f565b5f8155600101610b8d565b5080610b8d565b01519050878061091b565b9250600285015f5260205f20905f935b601f1984168510610c13576001945083601f19811610610bfb575b505050811b016002830155610932565b01515f1960f88460031b161c19169055878080610beb565b81810151835560209485019460019093019290910190610bd0565b909150600285015f5260205f20601f840160051c810160208510610c77575b90849392915b601f830160051c82018110610c69575050610905565b5f8155859450600101610c53565b5080610c4d565b0151905087806108bf565b9250600185015f5260205f20905f935b601f1984168510610cdc576001945083601f19811610610cc4575b505050811b0160018301556108d6565b01515f1960f88460031b161c19169055878080610cb4565b81810151835560209485019460019093019290910190610c99565b909150600185015f5260205f20601f840160051c810160208510610d40575b90849392915b601f830160051c82018110610d325750506108a9565b5f8155859450600101610d1c565b5080610d16565b634e487b7160e01b5f52601160045260245ffd5b60405162461bcd60e51b815260206004820152602260248201527f4d696e696d756d20626964206d7573742062652067726561746572207468616e604482015261020360f41b6064820152608490fd5b60405162461bcd60e51b815260206004820152601860248201527f43617465676f72792063616e6e6f7420626520656d70747900000000000000006044820152606490fd5b60405162461bcd60e51b815260206004820152601b60248201527f4465736372697074696f6e2063616e6e6f7420626520656d70747900000000006044820152606490fd5b60405162461bcd60e51b815260206004820152601560248201527f5469746c652063616e6e6f7420626520656d70747900000000000000000000006044820152606490fd5b3461017e57604036600319011261017e576024356004355f52600160205260405f2090815481101561017e57610eaf91611a29565b506001600160a01b038154166001820154916002810154610f06610ed560038401611949565b60ff60056004860154950154169260405196879687526020870152604086015260c0606086015260c08501906119eb565b916080840152151560a08301520390f35b3461017e57602036600319011261017e576004355f525f60205260405f208054610f4360018301611949565b91610f5060028201611949565b610f5c60038301611949565b916004810154926001600160a01b039081600584015416600684015460ff60078601541691610fd8600887015494610fca600b60098a015498600a8b01541699015499610fbc6040519e8f9e8f61018091815281602082015201906119eb565b8d810360408f0152906119eb565b908b820360608d01526119eb565b9760808a015260a089015260c0880152151560e08701526101008601526101208501526101408401526101608301520390f35b608036600319011261017e57602435801515810361017e5760643567ffffffffffffffff811161017e576110439036906004016118bb565b9060043515158061178e575b61105890611b3e565b6004355f525f60205261107460ff600760405f20015416611b8a565b6004355f525f602052600860405f200154421015611749576004355f525f6020526001600160a01b03600560405f20015416331461170457335f52600360205260405f206004355f5260205260ff60405f205416611699576004355f525f602052600460405f2001543410611654571561164c575f6001915b60206001600160a01b037fed8d60e34876f751cc8b014c560745351147d9de11b9347c854e881b128ea601541660446040518095819360ff639cd07acb60e01b998a85521660048401528160248401525af19182156101cd575f92611617575b5060205f929360446001600160a01b037fed8d60e34876f751cc8b014c560745351147d9de11b9347c854e881b128ea6015416916040519586938492835267ffffffffffffffff8435166004840152600560248401525af19182156101cd575f926115e3575b506004355f52600160205260405f2090604051938460c081011067ffffffffffffffff60c087011117610ae05760c08501604052338552836020860152604085015260608401524260808401525f60a0840152805468010000000000000000811015610ae05761122891600182018155611a29565b6115d0576001600160a01b0383511673ffffffffffffffffffffffffffffffffffffffff198254161781556020830151600182015560408301516002820155606083015192835167ffffffffffffffff8111610ae05761128b6003840154611911565b601f811161158c575b506020601f821160011461151a57918160a0926005946112ee97985f9261150f575b50508160011b915f199060031b1c19161760038501555b608081015160048501550151151591019060ff801983541691151516179055565b6004355f525f602052600b60405f20016113088154611b30565b9055335f52600360205260405f206004355f5260205260405f20600160ff198254161790555f602052600960405f2001548091809181156114ff575b80156114ed575b60209060646001600160a01b037fed8d60e34876f751cc8b014c560745351147d9de11b9347c854e881b128ea6015416945f60405196879485936385362ee760e01b8552600485015260248401528160448401525af19182156101cd575f926114b8575b5060646020925f6001600160a01b037fed8d60e34876f751cc8b014c560745351147d9de11b9347c854e881b128ea60154166040519687958694637702dcff60e01b86526004860152602485015260448401525af19081156101cd575f91611486575b506004355f525f60205260405f20906009820155604435611460575b60405142815233907f0e54eff26401bf69b81b26f60bd85ef47f5d85275c1d268d84f68d6897431c47602060043592a3005b600a013373ffffffffffffffffffffffffffffffffffffffff198254161790558061142e565b90506020813d6020116114b0575b816114a160209383611899565b8101031261017e575181611412565b3d9150611494565b91506020823d6020116114e5575b816114d360209383611899565b8101031261017e5790519060646113af565b3d91506114c6565b5060206114f8611c5c565b905061134b565b9150611509611c5c565b91611344565b0151905088806112b6565b601f19821695600385015f5260205f20965f5b8181106115745750926112ee9697600595936001938360a0971061155c575b505050811b0160038501556112cd565b01515f1960f88460031b161c1916905588808061154c565b8383015189556001909801976020938401930161152d565b600384015f5260205f20601f830160051c8101602084106115c9575b601f830160051c820181106115be575050611294565b5f81556001016115a8565b50806115a8565b634e487b7160e01b5f525f60045260245ffd5b9091506020813d60201161160f575b816115ff60209383611899565b8101031261017e575190836111b3565b3d91506115f2565b91506020823d602011611644575b8161163260209383611899565b8101031261017e57905190602061114d565b3d9150611625565b5f80916110ed565b60405162461bcd60e51b815260206004820152601860248201527f4269642062656c6f77206d696e696d756d20616d6f756e7400000000000000006044820152606490fd5b60405162461bcd60e51b815260206004820152602d60248201527f596f75206861766520616c726561647920706c61636564206120626964206f6e60448201527f20746869732061756374696f6e000000000000000000000000000000000000006064820152608490fd5b60405162461bcd60e51b815260206004820152601e60248201527f43616e6e6f7420626964206f6e20796f7572206f776e2061756374696f6e00006044820152606490fd5b60405162461bcd60e51b815260206004820152601160248201527f41756374696f6e2068617320656e6465640000000000000000000000000000006044820152606490fd5b506004805490351061104f565b3461017e57602036600319011261017e57600435801515806117d9575b6117c190611b3e565b5f525f6020526020600b60405f200154604051908152f35b5060045481106117b8565b3461017e575f36600319011261017e576020600554604051908152f35b3461017e575f36600319011261017e575f6001906001600454905b818110611836576040836005549082519182526020820152f35b8084915f525f60205260405f2060ff600782015416908161186e575b5061185e575b0161181c565b9261186890611b30565b92611858565b600891500154421086611852565b610180810190811067ffffffffffffffff821117610ae057604052565b90601f8019910116810190811067ffffffffffffffff821117610ae057604052565b81601f8201121561017e5780359067ffffffffffffffff8211610ae057604051926118f0601f8401601f191660200185611899565b8284526020838301011161017e57815f926020809301838601378301015290565b90600182811c9216801561193f575b602083101461192b57565b634e487b7160e01b5f52602260045260245ffd5b91607f1691611920565b9060405191825f825461195b81611911565b908184526020946001916001811690815f146119c9575060011461198b575b50505061198992500383611899565b565b5f90815285812095935091905b8183106119b157505061198993508201015f808061197a565b85548884018501529485019487945091830191611998565b9250505061198994925060ff191682840152151560051b8201015f808061197a565b91908251928382525f5b848110611a15575050825f602080949584010152601f8019910116010190565b6020818301810151848301820152016119f5565b8054821015611a42575f52600660205f20910201905f90565b634e487b7160e01b5f52603260045260245ffd5b90611a9f611a8d611a7b610180855185526020860151908060208701528501906119eb565b604085015184820360408601526119eb565b606084015183820360608501526119eb565b916080810151608083015260a08101516001600160a01b0380911660a084015260c082015160c084015260e0820151151560e084015261010080830151908401526101208083015190840152610140908183015116908301526101608091015191015290565b600435906001600160a01b038216820361017e57565b8054821015611a42575f5260205f2001905f90565b5f198114610d475760010190565b15611b4557565b60405162461bcd60e51b815260206004820152601260248201527f496e76616c69642061756374696f6e20494400000000000000000000000000006044820152606490fd5b15611b9157565b60405162461bcd60e51b815260206004820152601560248201527f41756374696f6e206973206e6f742061637469766500000000000000000000006044820152606490fd5b60405190611be38261187c565b5f6101608382815260606020820152606060408201526060808201528260808201528260a08201528260c08201528260e08201528261010082015282610120820152826101408201520152565b67ffffffffffffffff8111610ae05760051b60200190565b8051821015611a425760209160051b010190565b5f60206001600160a01b037fed8d60e34876f751cc8b014c560745351147d9de11b9347c854e881b128ea6015416604460405180948193639cd07acb60e01b8352816004840152600560248401525af19081156101cd575f91611cbd575090565b90506020813d602011611ce4575b81611cd860209383611899565b8101031261017e575190565b3d9150611ccb56fea164736f6c6343000818000a",
  "linkReferences": {},
  "deployedLinkReferences": {}
}